{
	"TokenBank.sol": {
		"TokenBank": {
			"abi": [
				{
					"inputs": [
						{
							"internalType": "address",
							"name": "_baseERC20",
							"type": "address"
						}
					],
					"stateMutability": "nonpayable",
					"type": "constructor"
				},
				{
					"inputs": [
						{
							"internalType": "uint256",
							"name": "tokens",
							"type": "uint256"
						}
					],
					"name": "deposit",
					"outputs": [],
					"stateMutability": "nonpayable",
					"type": "function"
				},
				{
					"inputs": [
						{
							"internalType": "address",
							"name": "from",
							"type": "address"
						},
						{
							"internalType": "uint256",
							"name": "tokens",
							"type": "uint256"
						}
					],
					"name": "tokensReceived",
					"outputs": [
						{
							"internalType": "bool",
							"name": "",
							"type": "bool"
						}
					],
					"stateMutability": "nonpayable",
					"type": "function"
				},
				{
					"inputs": [
						{
							"internalType": "uint256",
							"name": "tokens",
							"type": "uint256"
						}
					],
					"name": "withdraw",
					"outputs": [],
					"stateMutability": "nonpayable",
					"type": "function"
				}
			],
			"devdoc": {
				"kind": "dev",
				"methods": {},
				"version": 1
			},
			"evm": {
				"assembly": "    /* \"TokenBank.sol\":84:1455  contract TokenBank {... */\n  mstore(0x40, 0x80)\n    /* \"TokenBank.sol\":228:310  constructor(address _baseERC20) {... */\n  callvalue\n  dup1\n  iszero\n  tag_1\n  jumpi\n  0x00\n  dup1\n  revert\ntag_1:\n  pop\n  mload(0x40)\n  sub(codesize, bytecodeSize)\n  dup1\n  bytecodeSize\n  dup4\n  codecopy\n  dup2\n  dup2\n  add\n  0x40\n  mstore\n  dup2\n  add\n  swap1\n  tag_2\n  swap2\n  swap1\n  tag_3\n  jump\t// in\ntag_2:\n    /* \"TokenBank.sol\":292:302  _baseERC20 */\n  dup1\n    /* \"TokenBank.sol\":270:279  baseERC20 */\n  0x01\n  0x00\n    /* \"TokenBank.sol\":270:303  baseERC20 = BaseERC20(_baseERC20) */\n  0x0100\n  exp\n  dup2\n  sload\n  dup2\n  0xffffffffffffffffffffffffffffffffffffffff\n  mul\n  not\n  and\n  swap1\n  dup4\n  0xffffffffffffffffffffffffffffffffffffffff\n  and\n  mul\n  or\n  swap1\n  sstore\n  pop\n    /* \"TokenBank.sol\":228:310  constructor(address _baseERC20) {... */\n  pop\n    /* \"TokenBank.sol\":84:1455  contract TokenBank {... */\n  jump(tag_6)\n    /* \"#utility.yul\":88:205   */\ntag_8:\n    /* \"#utility.yul\":197:198   */\n  0x00\n    /* \"#utility.yul\":194:195   */\n  dup1\n    /* \"#utility.yul\":187:199   */\n  revert\n    /* \"#utility.yul\":334:460   */\ntag_10:\n    /* \"#utility.yul\":371:378   */\n  0x00\n    /* \"#utility.yul\":411:453   */\n  0xffffffffffffffffffffffffffffffffffffffff\n    /* \"#utility.yul\":404:409   */\n  dup3\n    /* \"#utility.yul\":400:454   */\n  and\n    /* \"#utility.yul\":389:454   */\n  swap1\n  pop\n    /* \"#utility.yul\":334:460   */\n  swap2\n  swap1\n  pop\n  jump\t// out\n    /* \"#utility.yul\":466:562   */\ntag_11:\n    /* \"#utility.yul\":503:510   */\n  0x00\n    /* \"#utility.yul\":532:556   */\n  tag_20\n    /* \"#utility.yul\":550:555   */\n  dup3\n    /* \"#utility.yul\":532:556   */\n  tag_10\n  jump\t// in\ntag_20:\n    /* \"#utility.yul\":521:556   */\n  swap1\n  pop\n    /* \"#utility.yul\":466:562   */\n  swap2\n  swap1\n  pop\n  jump\t// out\n    /* \"#utility.yul\":568:690   */\ntag_12:\n    /* \"#utility.yul\":641:665   */\n  tag_22\n    /* \"#utility.yul\":659:664   */\n  dup2\n    /* \"#utility.yul\":641:665   */\n  tag_11\n  jump\t// in\ntag_22:\n    /* \"#utility.yul\":634:639   */\n  dup2\n    /* \"#utility.yul\":631:666   */\n  eq\n    /* \"#utility.yul\":621:684   */\n  tag_23\n  jumpi\n    /* \"#utility.yul\":680:681   */\n  0x00\n    /* \"#utility.yul\":677:678   */\n  dup1\n    /* \"#utility.yul\":670:682   */\n  revert\n    /* \"#utility.yul\":621:684   */\ntag_23:\n    /* \"#utility.yul\":568:690   */\n  pop\n  jump\t// out\n    /* \"#utility.yul\":696:839   */\ntag_13:\n    /* \"#utility.yul\":753:758   */\n  0x00\n    /* \"#utility.yul\":784:790   */\n  dup2\n    /* \"#utility.yul\":778:791   */\n  mload\n    /* \"#utility.yul\":769:791   */\n  swap1\n  pop\n    /* \"#utility.yul\":800:833   */\n  tag_25\n    /* \"#utility.yul\":827:832   */\n  dup2\n    /* \"#utility.yul\":800:833   */\n  tag_12\n  jump\t// in\ntag_25:\n    /* \"#utility.yul\":696:839   */\n  swap3\n  swap2\n  pop\n  pop\n  jump\t// out\n    /* \"#utility.yul\":845:1196   */\ntag_3:\n    /* \"#utility.yul\":915:921   */\n  0x00\n    /* \"#utility.yul\":964:966   */\n  0x20\n    /* \"#utility.yul\":952:961   */\n  dup3\n    /* \"#utility.yul\":943:950   */\n  dup5\n    /* \"#utility.yul\":939:962   */\n  sub\n    /* \"#utility.yul\":935:967   */\n  slt\n    /* \"#utility.yul\":932:1051   */\n  iszero\n  tag_27\n  jumpi\n    /* \"#utility.yul\":970:1049   */\n  tag_28\n  tag_8\n  jump\t// in\ntag_28:\n    /* \"#utility.yul\":932:1051   */\ntag_27:\n    /* \"#utility.yul\":1090:1091   */\n  0x00\n    /* \"#utility.yul\":1115:1179   */\n  tag_29\n    /* \"#utility.yul\":1171:1178   */\n  dup5\n    /* \"#utility.yul\":1162:1168   */\n  dup3\n    /* \"#utility.yul\":1151:1160   */\n  dup6\n    /* \"#utility.yul\":1147:1169   */\n  add\n    /* \"#utility.yul\":1115:1179   */\n  tag_13\n  jump\t// in\ntag_29:\n    /* \"#utility.yul\":1105:1179   */\n  swap2\n  pop\n    /* \"#utility.yul\":1061:1189   */\n  pop\n    /* \"#utility.yul\":845:1196   */\n  swap3\n  swap2\n  pop\n  pop\n  jump\t// out\n    /* \"TokenBank.sol\":84:1455  contract TokenBank {... */\ntag_6:\n  dataSize(sub_0)\n  dup1\n  dataOffset(sub_0)\n  0x00\n  codecopy\n  0x00\n  return\nstop\n\nsub_0: assembly {\n        /* \"TokenBank.sol\":84:1455  contract TokenBank {... */\n      mstore(0x40, 0x80)\n      callvalue\n      dup1\n      iszero\n      tag_1\n      jumpi\n      0x00\n      dup1\n      revert\n    tag_1:\n      pop\n      jumpi(tag_2, lt(calldatasize, 0x04))\n      shr(0xe0, calldataload(0x00))\n      dup1\n      0x24a756d1\n      eq\n      tag_3\n      jumpi\n      dup1\n      0x2e1a7d4d\n      eq\n      tag_4\n      jumpi\n      dup1\n      0xb6b55f25\n      eq\n      tag_5\n      jumpi\n    tag_2:\n      0x00\n      dup1\n      revert\n        /* \"TokenBank.sol\":1220:1453  function tokensReceived(address from, uint256 tokens) external returns (bool) {... */\n    tag_3:\n      tag_6\n      0x04\n      dup1\n      calldatasize\n      sub\n      dup2\n      add\n      swap1\n      tag_7\n      swap2\n      swap1\n      tag_8\n      jump\t// in\n    tag_7:\n      tag_9\n      jump\t// in\n    tag_6:\n      mload(0x40)\n      tag_10\n      swap2\n      swap1\n      tag_11\n      jump\t// in\n    tag_10:\n      mload(0x40)\n      dup1\n      swap2\n      sub\n      swap1\n      return\n        /* \"TokenBank.sol\":818:1037  function withdraw(uint256 tokens) public {... */\n    tag_4:\n      tag_12\n      0x04\n      dup1\n      calldatasize\n      sub\n      dup2\n      add\n      swap1\n      tag_13\n      swap2\n      swap1\n      tag_14\n      jump\t// in\n    tag_13:\n      tag_15\n      jump\t// in\n    tag_12:\n      stop\n        /* \"TokenBank.sol\":442:711  function deposit(uint256 tokens) public {... */\n    tag_5:\n      tag_16\n      0x04\n      dup1\n      calldatasize\n      sub\n      dup2\n      add\n      swap1\n      tag_17\n      swap2\n      swap1\n      tag_14\n      jump\t// in\n    tag_17:\n      tag_18\n      jump\t// in\n    tag_16:\n      stop\n        /* \"TokenBank.sol\":1220:1453  function tokensReceived(address from, uint256 tokens) external returns (bool) {... */\n    tag_9:\n        /* \"TokenBank.sol\":1292:1296  bool */\n      0x00\n        /* \"TokenBank.sol\":1338:1347  baseERC20 */\n      0x01\n      0x00\n      swap1\n      sload\n      swap1\n      0x0100\n      exp\n      swap1\n      div\n      0xffffffffffffffffffffffffffffffffffffffff\n      and\n        /* \"TokenBank.sol\":1316:1348  msg.sender == address(baseERC20) */\n      0xffffffffffffffffffffffffffffffffffffffff\n      and\n        /* \"TokenBank.sol\":1316:1326  msg.sender */\n      caller\n        /* \"TokenBank.sol\":1316:1348  msg.sender == address(baseERC20) */\n      0xffffffffffffffffffffffffffffffffffffffff\n      and\n      eq\n        /* \"TokenBank.sol\":1308:1391  require(msg.sender == address(baseERC20), \"Only BaseERC20 contract could execute!\") */\n      tag_20\n      jumpi\n      mload(0x40)\n      0x08c379a000000000000000000000000000000000000000000000000000000000\n      dup2\n      mstore\n      0x04\n      add\n      tag_21\n      swap1\n      tag_22\n      jump\t// in\n    tag_21:\n      mload(0x40)\n      dup1\n      swap2\n      sub\n      swap1\n      revert\n    tag_20:\n        /* \"TokenBank.sol\":1419:1425  tokens */\n      dup2\n        /* \"TokenBank.sol\":1401:1409  deposits */\n      0x00\n        /* \"TokenBank.sol\":1401:1415  deposits[from] */\n      dup1\n        /* \"TokenBank.sol\":1410:1414  from */\n      dup6\n        /* \"TokenBank.sol\":1401:1415  deposits[from] */\n      0xffffffffffffffffffffffffffffffffffffffff\n      and\n      0xffffffffffffffffffffffffffffffffffffffff\n      and\n      dup2\n      mstore\n      0x20\n      add\n      swap1\n      dup2\n      mstore\n      0x20\n      add\n      0x00\n      keccak256\n      0x00\n        /* \"TokenBank.sol\":1401:1425  deposits[from] += tokens */\n      dup3\n      dup3\n      sload\n      tag_23\n      swap2\n      swap1\n      tag_24\n      jump\t// in\n    tag_23:\n      swap3\n      pop\n      pop\n      dup2\n      swap1\n      sstore\n      pop\n        /* \"TokenBank.sol\":1442:1446  true */\n      0x01\n        /* \"TokenBank.sol\":1435:1446  return true */\n      swap1\n      pop\n        /* \"TokenBank.sol\":1220:1453  function tokensReceived(address from, uint256 tokens) external returns (bool) {... */\n      swap3\n      swap2\n      pop\n      pop\n      jump\t// out\n        /* \"TokenBank.sol\":818:1037  function withdraw(uint256 tokens) public {... */\n    tag_15:\n        /* \"TokenBank.sol\":901:907  tokens */\n      dup1\n        /* \"TokenBank.sol\":877:885  deposits */\n      0x00\n        /* \"TokenBank.sol\":877:897  deposits[msg.sender] */\n      dup1\n        /* \"TokenBank.sol\":886:896  msg.sender */\n      caller\n        /* \"TokenBank.sol\":877:897  deposits[msg.sender] */\n      0xffffffffffffffffffffffffffffffffffffffff\n      and\n      0xffffffffffffffffffffffffffffffffffffffff\n      and\n      dup2\n      mstore\n      0x20\n      add\n      swap1\n      dup2\n      mstore\n      0x20\n      add\n      0x00\n      keccak256\n      sload\n        /* \"TokenBank.sol\":877:907  deposits[msg.sender] >= tokens */\n      lt\n      iszero\n        /* \"TokenBank.sol\":869:942  require(deposits[msg.sender] >= tokens, \"TokenBank: No suffcient tokens\") */\n      tag_26\n      jumpi\n      mload(0x40)\n      0x08c379a000000000000000000000000000000000000000000000000000000000\n      dup2\n      mstore\n      0x04\n      add\n      tag_27\n      swap1\n      tag_28\n      jump\t// in\n    tag_27:\n      mload(0x40)\n      dup1\n      swap2\n      sub\n      swap1\n      revert\n    tag_26:\n        /* \"TokenBank.sol\":952:961  baseERC20 */\n      0x01\n      0x00\n      swap1\n      sload\n      swap1\n      0x0100\n      exp\n      swap1\n      div\n      0xffffffffffffffffffffffffffffffffffffffff\n      and\n        /* \"TokenBank.sol\":952:970  baseERC20.transfer */\n      0xffffffffffffffffffffffffffffffffffffffff\n      and\n      0xa9059cbb\n        /* \"TokenBank.sol\":971:981  msg.sender */\n      caller\n        /* \"TokenBank.sol\":983:989  tokens */\n      dup4\n        /* \"TokenBank.sol\":952:990  baseERC20.transfer(msg.sender, tokens) */\n      mload(0x40)\n      dup4\n      0xffffffff\n      and\n      0xe0\n      shl\n      dup2\n      mstore\n      0x04\n      add\n      tag_29\n      swap3\n      swap2\n      swap1\n      tag_30\n      jump\t// in\n    tag_29:\n      0x20\n      mload(0x40)\n      dup1\n      dup4\n      sub\n      dup2\n      0x00\n      dup8\n      gas\n      call\n      iszero\n      dup1\n      iszero\n      tag_32\n      jumpi\n      returndatasize\n      0x00\n      dup1\n      returndatacopy\n      revert(0x00, returndatasize)\n    tag_32:\n      pop\n      pop\n      pop\n      pop\n      mload(0x40)\n      returndatasize\n      not(0x1f)\n      0x1f\n      dup3\n      add\n      and\n      dup3\n      add\n      dup1\n      0x40\n      mstore\n      pop\n      dup2\n      add\n      swap1\n      tag_33\n      swap2\n      swap1\n      tag_34\n      jump\t// in\n    tag_33:\n      pop\n        /* \"TokenBank.sol\":1024:1030  tokens */\n      dup1\n        /* \"TokenBank.sol\":1000:1008  deposits */\n      0x00\n        /* \"TokenBank.sol\":1000:1020  deposits[msg.sender] */\n      dup1\n        /* \"TokenBank.sol\":1009:1019  msg.sender */\n      caller\n        /* \"TokenBank.sol\":1000:1020  deposits[msg.sender] */\n      0xffffffffffffffffffffffffffffffffffffffff\n      and\n      0xffffffffffffffffffffffffffffffffffffffff\n      and\n      dup2\n      mstore\n      0x20\n      add\n      swap1\n      dup2\n      mstore\n      0x20\n      add\n      0x00\n      keccak256\n      0x00\n        /* \"TokenBank.sol\":1000:1030  deposits[msg.sender] -= tokens */\n      dup3\n      dup3\n      sload\n      tag_35\n      swap2\n      swap1\n      tag_36\n      jump\t// in\n    tag_35:\n      swap3\n      pop\n      pop\n      dup2\n      swap1\n      sstore\n      pop\n        /* \"TokenBank.sol\":818:1037  function withdraw(uint256 tokens) public {... */\n      pop\n      jump\t// out\n        /* \"TokenBank.sol\":442:711  function deposit(uint256 tokens) public {... */\n    tag_18:\n        /* \"TokenBank.sol\":607:616  baseERC20 */\n      0x01\n      0x00\n      swap1\n      sload\n      swap1\n      0x0100\n      exp\n      swap1\n      div\n      0xffffffffffffffffffffffffffffffffffffffff\n      and\n        /* \"TokenBank.sol\":607:629  baseERC20.transferFrom */\n      0xffffffffffffffffffffffffffffffffffffffff\n      and\n      0x23b872dd\n        /* \"TokenBank.sol\":630:640  msg.sender */\n      caller\n        /* \"TokenBank.sol\":650:654  this */\n      address\n        /* \"TokenBank.sol\":657:663  tokens */\n      dup5\n        /* \"TokenBank.sol\":607:664  baseERC20.transferFrom(msg.sender, address(this), tokens) */\n      mload(0x40)\n      dup5\n      0xffffffff\n      and\n      0xe0\n      shl\n      dup2\n      mstore\n      0x04\n      add\n      tag_38\n      swap4\n      swap3\n      swap2\n      swap1\n      tag_39\n      jump\t// in\n    tag_38:\n      0x20\n      mload(0x40)\n      dup1\n      dup4\n      sub\n      dup2\n      0x00\n      dup8\n      gas\n      call\n      iszero\n      dup1\n      iszero\n      tag_41\n      jumpi\n      returndatasize\n      0x00\n      dup1\n      returndatacopy\n      revert(0x00, returndatasize)\n    tag_41:\n      pop\n      pop\n      pop\n      pop\n      mload(0x40)\n      returndatasize\n      not(0x1f)\n      0x1f\n      dup3\n      add\n      and\n      dup3\n      add\n      dup1\n      0x40\n      mstore\n      pop\n      dup2\n      add\n      swap1\n      tag_42\n      swap2\n      swap1\n      tag_34\n      jump\t// in\n    tag_42:\n      pop\n        /* \"TokenBank.sol\":698:704  tokens */\n      dup1\n        /* \"TokenBank.sol\":674:682  deposits */\n      0x00\n        /* \"TokenBank.sol\":674:694  deposits[msg.sender] */\n      dup1\n        /* \"TokenBank.sol\":683:693  msg.sender */\n      caller\n        /* \"TokenBank.sol\":674:694  deposits[msg.sender] */\n      0xffffffffffffffffffffffffffffffffffffffff\n      and\n      0xffffffffffffffffffffffffffffffffffffffff\n      and\n      dup2\n      mstore\n      0x20\n      add\n      swap1\n      dup2\n      mstore\n      0x20\n      add\n      0x00\n      keccak256\n      0x00\n        /* \"TokenBank.sol\":674:704  deposits[msg.sender] += tokens */\n      dup3\n      dup3\n      sload\n      tag_43\n      swap2\n      swap1\n      tag_24\n      jump\t// in\n    tag_43:\n      swap3\n      pop\n      pop\n      dup2\n      swap1\n      sstore\n      pop\n        /* \"TokenBank.sol\":442:711  function deposit(uint256 tokens) public {... */\n      pop\n      jump\t// out\n        /* \"#utility.yul\":88:205   */\n    tag_45:\n        /* \"#utility.yul\":197:198   */\n      0x00\n        /* \"#utility.yul\":194:195   */\n      dup1\n        /* \"#utility.yul\":187:199   */\n      revert\n        /* \"#utility.yul\":334:460   */\n    tag_47:\n        /* \"#utility.yul\":371:378   */\n      0x00\n        /* \"#utility.yul\":411:453   */\n      0xffffffffffffffffffffffffffffffffffffffff\n        /* \"#utility.yul\":404:409   */\n      dup3\n        /* \"#utility.yul\":400:454   */\n      and\n        /* \"#utility.yul\":389:454   */\n      swap1\n      pop\n        /* \"#utility.yul\":334:460   */\n      swap2\n      swap1\n      pop\n      jump\t// out\n        /* \"#utility.yul\":466:562   */\n    tag_48:\n        /* \"#utility.yul\":503:510   */\n      0x00\n        /* \"#utility.yul\":532:556   */\n      tag_72\n        /* \"#utility.yul\":550:555   */\n      dup3\n        /* \"#utility.yul\":532:556   */\n      tag_47\n      jump\t// in\n    tag_72:\n        /* \"#utility.yul\":521:556   */\n      swap1\n      pop\n        /* \"#utility.yul\":466:562   */\n      swap2\n      swap1\n      pop\n      jump\t// out\n        /* \"#utility.yul\":568:690   */\n    tag_49:\n        /* \"#utility.yul\":641:665   */\n      tag_74\n        /* \"#utility.yul\":659:664   */\n      dup2\n        /* \"#utility.yul\":641:665   */\n      tag_48\n      jump\t// in\n    tag_74:\n        /* \"#utility.yul\":634:639   */\n      dup2\n        /* \"#utility.yul\":631:666   */\n      eq\n        /* \"#utility.yul\":621:684   */\n      tag_75\n      jumpi\n        /* \"#utility.yul\":680:681   */\n      0x00\n        /* \"#utility.yul\":677:678   */\n      dup1\n        /* \"#utility.yul\":670:682   */\n      revert\n        /* \"#utility.yul\":621:684   */\n    tag_75:\n        /* \"#utility.yul\":568:690   */\n      pop\n      jump\t// out\n        /* \"#utility.yul\":696:835   */\n    tag_50:\n        /* \"#utility.yul\":742:747   */\n      0x00\n        /* \"#utility.yul\":780:786   */\n      dup2\n        /* \"#utility.yul\":767:787   */\n      calldataload\n        /* \"#utility.yul\":758:787   */\n      swap1\n      pop\n        /* \"#utility.yul\":796:829   */\n      tag_77\n        /* \"#utility.yul\":823:828   */\n      dup2\n        /* \"#utility.yul\":796:829   */\n      tag_49\n      jump\t// in\n    tag_77:\n        /* \"#utility.yul\":696:835   */\n      swap3\n      swap2\n      pop\n      pop\n      jump\t// out\n        /* \"#utility.yul\":841:918   */\n    tag_51:\n        /* \"#utility.yul\":878:885   */\n      0x00\n        /* \"#utility.yul\":907:912   */\n      dup2\n        /* \"#utility.yul\":896:912   */\n      swap1\n      pop\n        /* \"#utility.yul\":841:918   */\n      swap2\n      swap1\n      pop\n      jump\t// out\n        /* \"#utility.yul\":924:1046   */\n    tag_52:\n        /* \"#utility.yul\":997:1021   */\n      tag_80\n        /* \"#utility.yul\":1015:1020   */\n      dup2\n        /* \"#utility.yul\":997:1021   */\n      tag_51\n      jump\t// in\n    tag_80:\n        /* \"#utility.yul\":990:995   */\n      dup2\n        /* \"#utility.yul\":987:1022   */\n      eq\n        /* \"#utility.yul\":977:1040   */\n      tag_81\n      jumpi\n        /* \"#utility.yul\":1036:1037   */\n      0x00\n        /* \"#utility.yul\":1033:1034   */\n      dup1\n        /* \"#utility.yul\":1026:1038   */\n      revert\n        /* \"#utility.yul\":977:1040   */\n    tag_81:\n        /* \"#utility.yul\":924:1046   */\n      pop\n      jump\t// out\n        /* \"#utility.yul\":1052:1191   */\n    tag_53:\n        /* \"#utility.yul\":1098:1103   */\n      0x00\n        /* \"#utility.yul\":1136:1142   */\n      dup2\n        /* \"#utility.yul\":1123:1143   */\n      calldataload\n        /* \"#utility.yul\":1114:1143   */\n      swap1\n      pop\n        /* \"#utility.yul\":1152:1185   */\n      tag_83\n        /* \"#utility.yul\":1179:1184   */\n      dup2\n        /* \"#utility.yul\":1152:1185   */\n      tag_52\n      jump\t// in\n    tag_83:\n        /* \"#utility.yul\":1052:1191   */\n      swap3\n      swap2\n      pop\n      pop\n      jump\t// out\n        /* \"#utility.yul\":1197:1671   */\n    tag_8:\n        /* \"#utility.yul\":1265:1271   */\n      0x00\n        /* \"#utility.yul\":1273:1279   */\n      dup1\n        /* \"#utility.yul\":1322:1324   */\n      0x40\n        /* \"#utility.yul\":1310:1319   */\n      dup4\n        /* \"#utility.yul\":1301:1308   */\n      dup6\n        /* \"#utility.yul\":1297:1320   */\n      sub\n        /* \"#utility.yul\":1293:1325   */\n      slt\n        /* \"#utility.yul\":1290:1409   */\n      iszero\n      tag_85\n      jumpi\n        /* \"#utility.yul\":1328:1407   */\n      tag_86\n      tag_45\n      jump\t// in\n    tag_86:\n        /* \"#utility.yul\":1290:1409   */\n    tag_85:\n        /* \"#utility.yul\":1448:1449   */\n      0x00\n        /* \"#utility.yul\":1473:1526   */\n      tag_87\n        /* \"#utility.yul\":1518:1525   */\n      dup6\n        /* \"#utility.yul\":1509:1515   */\n      dup3\n        /* \"#utility.yul\":1498:1507   */\n      dup7\n        /* \"#utility.yul\":1494:1516   */\n      add\n        /* \"#utility.yul\":1473:1526   */\n      tag_50\n      jump\t// in\n    tag_87:\n        /* \"#utility.yul\":1463:1526   */\n      swap3\n      pop\n        /* \"#utility.yul\":1419:1536   */\n      pop\n        /* \"#utility.yul\":1575:1577   */\n      0x20\n        /* \"#utility.yul\":1601:1654   */\n      tag_88\n        /* \"#utility.yul\":1646:1653   */\n      dup6\n        /* \"#utility.yul\":1637:1643   */\n      dup3\n        /* \"#utility.yul\":1626:1635   */\n      dup7\n        /* \"#utility.yul\":1622:1644   */\n      add\n        /* \"#utility.yul\":1601:1654   */\n      tag_53\n      jump\t// in\n    tag_88:\n        /* \"#utility.yul\":1591:1654   */\n      swap2\n      pop\n        /* \"#utility.yul\":1546:1664   */\n      pop\n        /* \"#utility.yul\":1197:1671   */\n      swap3\n      pop\n      swap3\n      swap1\n      pop\n      jump\t// out\n        /* \"#utility.yul\":1677:1767   */\n    tag_54:\n        /* \"#utility.yul\":1711:1718   */\n      0x00\n        /* \"#utility.yul\":1754:1759   */\n      dup2\n        /* \"#utility.yul\":1747:1760   */\n      iszero\n        /* \"#utility.yul\":1740:1761   */\n      iszero\n        /* \"#utility.yul\":1729:1761   */\n      swap1\n      pop\n        /* \"#utility.yul\":1677:1767   */\n      swap2\n      swap1\n      pop\n      jump\t// out\n        /* \"#utility.yul\":1773:1882   */\n    tag_55:\n        /* \"#utility.yul\":1854:1875   */\n      tag_91\n        /* \"#utility.yul\":1869:1874   */\n      dup2\n        /* \"#utility.yul\":1854:1875   */\n      tag_54\n      jump\t// in\n    tag_91:\n        /* \"#utility.yul\":1849:1852   */\n      dup3\n        /* \"#utility.yul\":1842:1876   */\n      mstore\n        /* \"#utility.yul\":1773:1882   */\n      pop\n      pop\n      jump\t// out\n        /* \"#utility.yul\":1888:2098   */\n    tag_11:\n        /* \"#utility.yul\":1975:1979   */\n      0x00\n        /* \"#utility.yul\":2013:2015   */\n      0x20\n        /* \"#utility.yul\":2002:2011   */\n      dup3\n        /* \"#utility.yul\":1998:2016   */\n      add\n        /* \"#utility.yul\":1990:2016   */\n      swap1\n      pop\n        /* \"#utility.yul\":2026:2091   */\n      tag_93\n        /* \"#utility.yul\":2088:2089   */\n      0x00\n        /* \"#utility.yul\":2077:2086   */\n      dup4\n        /* \"#utility.yul\":2073:2090   */\n      add\n        /* \"#utility.yul\":2064:2070   */\n      dup5\n        /* \"#utility.yul\":2026:2091   */\n      tag_55\n      jump\t// in\n    tag_93:\n        /* \"#utility.yul\":1888:2098   */\n      swap3\n      swap2\n      pop\n      pop\n      jump\t// out\n        /* \"#utility.yul\":2104:2433   */\n    tag_14:\n        /* \"#utility.yul\":2163:2169   */\n      0x00\n        /* \"#utility.yul\":2212:2214   */\n      0x20\n        /* \"#utility.yul\":2200:2209   */\n      dup3\n        /* \"#utility.yul\":2191:2198   */\n      dup5\n        /* \"#utility.yul\":2187:2210   */\n      sub\n        /* \"#utility.yul\":2183:2215   */\n      slt\n        /* \"#utility.yul\":2180:2299   */\n      iszero\n      tag_95\n      jumpi\n        /* \"#utility.yul\":2218:2297   */\n      tag_96\n      tag_45\n      jump\t// in\n    tag_96:\n        /* \"#utility.yul\":2180:2299   */\n    tag_95:\n        /* \"#utility.yul\":2338:2339   */\n      0x00\n        /* \"#utility.yul\":2363:2416   */\n      tag_97\n        /* \"#utility.yul\":2408:2415   */\n      dup5\n        /* \"#utility.yul\":2399:2405   */\n      dup3\n        /* \"#utility.yul\":2388:2397   */\n      dup6\n        /* \"#utility.yul\":2384:2406   */\n      add\n        /* \"#utility.yul\":2363:2416   */\n      tag_53\n      jump\t// in\n    tag_97:\n        /* \"#utility.yul\":2353:2416   */\n      swap2\n      pop\n        /* \"#utility.yul\":2309:2426   */\n      pop\n        /* \"#utility.yul\":2104:2433   */\n      swap3\n      swap2\n      pop\n      pop\n      jump\t// out\n        /* \"#utility.yul\":2439:2608   */\n    tag_56:\n        /* \"#utility.yul\":2523:2534   */\n      0x00\n        /* \"#utility.yul\":2557:2563   */\n      dup3\n        /* \"#utility.yul\":2552:2555   */\n      dup3\n        /* \"#utility.yul\":2545:2564   */\n      mstore\n        /* \"#utility.yul\":2597:2601   */\n      0x20\n        /* \"#utility.yul\":2592:2595   */\n      dup3\n        /* \"#utility.yul\":2588:2602   */\n      add\n        /* \"#utility.yul\":2573:2602   */\n      swap1\n      pop\n        /* \"#utility.yul\":2439:2608   */\n      swap3\n      swap2\n      pop\n      pop\n      jump\t// out\n        /* \"#utility.yul\":2614:2839   */\n    tag_57:\n        /* \"#utility.yul\":2754:2788   */\n      0x4f6e6c792042617365455243323020636f6e747261637420636f756c64206578\n        /* \"#utility.yul\":2750:2751   */\n      0x00\n        /* \"#utility.yul\":2742:2748   */\n      dup3\n        /* \"#utility.yul\":2738:2752   */\n      add\n        /* \"#utility.yul\":2731:2789   */\n      mstore\n        /* \"#utility.yul\":2823:2831   */\n      0x6563757465210000000000000000000000000000000000000000000000000000\n        /* \"#utility.yul\":2818:2820   */\n      0x20\n        /* \"#utility.yul\":2810:2816   */\n      dup3\n        /* \"#utility.yul\":2806:2821   */\n      add\n        /* \"#utility.yul\":2799:2832   */\n      mstore\n        /* \"#utility.yul\":2614:2839   */\n      pop\n      jump\t// out\n        /* \"#utility.yul\":2845:3211   */\n    tag_58:\n        /* \"#utility.yul\":2987:2990   */\n      0x00\n        /* \"#utility.yul\":3008:3075   */\n      tag_101\n        /* \"#utility.yul\":3072:3074   */\n      0x26\n        /* \"#utility.yul\":3067:3070   */\n      dup4\n        /* \"#utility.yul\":3008:3075   */\n      tag_56\n      jump\t// in\n    tag_101:\n        /* \"#utility.yul\":3001:3075   */\n      swap2\n      pop\n        /* \"#utility.yul\":3084:3177   */\n      tag_102\n        /* \"#utility.yul\":3173:3176   */\n      dup3\n        /* \"#utility.yul\":3084:3177   */\n      tag_57\n      jump\t// in\n    tag_102:\n        /* \"#utility.yul\":3202:3204   */\n      0x40\n        /* \"#utility.yul\":3197:3200   */\n      dup3\n        /* \"#utility.yul\":3193:3205   */\n      add\n        /* \"#utility.yul\":3186:3205   */\n      swap1\n      pop\n        /* \"#utility.yul\":2845:3211   */\n      swap2\n      swap1\n      pop\n      jump\t// out\n        /* \"#utility.yul\":3217:3636   */\n    tag_22:\n        /* \"#utility.yul\":3383:3387   */\n      0x00\n        /* \"#utility.yul\":3421:3423   */\n      0x20\n        /* \"#utility.yul\":3410:3419   */\n      dup3\n        /* \"#utility.yul\":3406:3424   */\n      add\n        /* \"#utility.yul\":3398:3424   */\n      swap1\n      pop\n        /* \"#utility.yul\":3470:3479   */\n      dup2\n        /* \"#utility.yul\":3464:3468   */\n      dup2\n        /* \"#utility.yul\":3460:3480   */\n      sub\n        /* \"#utility.yul\":3456:3457   */\n      0x00\n        /* \"#utility.yul\":3445:3454   */\n      dup4\n        /* \"#utility.yul\":3441:3458   */\n      add\n        /* \"#utility.yul\":3434:3481   */\n      mstore\n        /* \"#utility.yul\":3498:3629   */\n      tag_104\n        /* \"#utility.yul\":3624:3628   */\n      dup2\n        /* \"#utility.yul\":3498:3629   */\n      tag_58\n      jump\t// in\n    tag_104:\n        /* \"#utility.yul\":3490:3629   */\n      swap1\n      pop\n        /* \"#utility.yul\":3217:3636   */\n      swap2\n      swap1\n      pop\n      jump\t// out\n        /* \"#utility.yul\":3642:3822   */\n    tag_59:\n        /* \"#utility.yul\":3690:3767   */\n      0x4e487b7100000000000000000000000000000000000000000000000000000000\n        /* \"#utility.yul\":3687:3688   */\n      0x00\n        /* \"#utility.yul\":3680:3768   */\n      mstore\n        /* \"#utility.yul\":3787:3791   */\n      0x11\n        /* \"#utility.yul\":3784:3785   */\n      0x04\n        /* \"#utility.yul\":3777:3792   */\n      mstore\n        /* \"#utility.yul\":3811:3815   */\n      0x24\n        /* \"#utility.yul\":3808:3809   */\n      0x00\n        /* \"#utility.yul\":3801:3816   */\n      revert\n        /* \"#utility.yul\":3828:4133   */\n    tag_24:\n        /* \"#utility.yul\":3868:3871   */\n      0x00\n        /* \"#utility.yul\":3887:3907   */\n      tag_107\n        /* \"#utility.yul\":3905:3906   */\n      dup3\n        /* \"#utility.yul\":3887:3907   */\n      tag_51\n      jump\t// in\n    tag_107:\n        /* \"#utility.yul\":3882:3907   */\n      swap2\n      pop\n        /* \"#utility.yul\":3921:3941   */\n      tag_108\n        /* \"#utility.yul\":3939:3940   */\n      dup4\n        /* \"#utility.yul\":3921:3941   */\n      tag_51\n      jump\t// in\n    tag_108:\n        /* \"#utility.yul\":3916:3941   */\n      swap3\n      pop\n        /* \"#utility.yul\":4075:4076   */\n      dup3\n        /* \"#utility.yul\":4007:4073   */\n      0xffffffffffffffffffffffffffffffffffffffffffffffffffffffffffffffff\n        /* \"#utility.yul\":4003:4077   */\n      sub\n        /* \"#utility.yul\":4000:4001   */\n      dup3\n        /* \"#utility.yul\":3997:4078   */\n      gt\n        /* \"#utility.yul\":3994:4101   */\n      iszero\n      tag_109\n      jumpi\n        /* \"#utility.yul\":4081:4099   */\n      tag_110\n      tag_59\n      jump\t// in\n    tag_110:\n        /* \"#utility.yul\":3994:4101   */\n    tag_109:\n        /* \"#utility.yul\":4125:4126   */\n      dup3\n        /* \"#utility.yul\":4122:4123   */\n      dup3\n        /* \"#utility.yul\":4118:4127   */\n      add\n        /* \"#utility.yul\":4111:4127   */\n      swap1\n      pop\n        /* \"#utility.yul\":3828:4133   */\n      swap3\n      swap2\n      pop\n      pop\n      jump\t// out\n        /* \"#utility.yul\":4139:4319   */\n    tag_60:\n        /* \"#utility.yul\":4279:4311   */\n      0x546f6b656e42616e6b3a204e6f20737566666369656e7420746f6b656e730000\n        /* \"#utility.yul\":4275:4276   */\n      0x00\n        /* \"#utility.yul\":4267:4273   */\n      dup3\n        /* \"#utility.yul\":4263:4277   */\n      add\n        /* \"#utility.yul\":4256:4312   */\n      mstore\n        /* \"#utility.yul\":4139:4319   */\n      pop\n      jump\t// out\n        /* \"#utility.yul\":4325:4691   */\n    tag_61:\n        /* \"#utility.yul\":4467:4470   */\n      0x00\n        /* \"#utility.yul\":4488:4555   */\n      tag_113\n        /* \"#utility.yul\":4552:4554   */\n      0x1e\n        /* \"#utility.yul\":4547:4550   */\n      dup4\n        /* \"#utility.yul\":4488:4555   */\n      tag_56\n      jump\t// in\n    tag_113:\n        /* \"#utility.yul\":4481:4555   */\n      swap2\n      pop\n        /* \"#utility.yul\":4564:4657   */\n      tag_114\n        /* \"#utility.yul\":4653:4656   */\n      dup3\n        /* \"#utility.yul\":4564:4657   */\n      tag_60\n      jump\t// in\n    tag_114:\n        /* \"#utility.yul\":4682:4684   */\n      0x20\n        /* \"#utility.yul\":4677:4680   */\n      dup3\n        /* \"#utility.yul\":4673:4685   */\n      add\n        /* \"#utility.yul\":4666:4685   */\n      swap1\n      pop\n        /* \"#utility.yul\":4325:4691   */\n      swap2\n      swap1\n      pop\n      jump\t// out\n        /* \"#utility.yul\":4697:5116   */\n    tag_28:\n        /* \"#utility.yul\":4863:4867   */\n      0x00\n        /* \"#utility.yul\":4901:4903   */\n      0x20\n        /* \"#utility.yul\":4890:4899   */\n      dup3\n        /* \"#utility.yul\":4886:4904   */\n      add\n        /* \"#utility.yul\":4878:4904   */\n      swap1\n      pop\n        /* \"#utility.yul\":4950:4959   */\n      dup2\n        /* \"#utility.yul\":4944:4948   */\n      dup2\n        /* \"#utility.yul\":4940:4960   */\n      sub\n        /* \"#utility.yul\":4936:4937   */\n      0x00\n        /* \"#utility.yul\":4925:4934   */\n      dup4\n        /* \"#utility.yul\":4921:4938   */\n      add\n        /* \"#utility.yul\":4914:4961   */\n      mstore\n        /* \"#utility.yul\":4978:5109   */\n      tag_116\n        /* \"#utility.yul\":5104:5108   */\n      dup2\n        /* \"#utility.yul\":4978:5109   */\n      tag_61\n      jump\t// in\n    tag_116:\n        /* \"#utility.yul\":4970:5109   */\n      swap1\n      pop\n        /* \"#utility.yul\":4697:5116   */\n      swap2\n      swap1\n      pop\n      jump\t// out\n        /* \"#utility.yul\":5122:5240   */\n    tag_62:\n        /* \"#utility.yul\":5209:5233   */\n      tag_118\n        /* \"#utility.yul\":5227:5232   */\n      dup2\n        /* \"#utility.yul\":5209:5233   */\n      tag_48\n      jump\t// in\n    tag_118:\n        /* \"#utility.yul\":5204:5207   */\n      dup3\n        /* \"#utility.yul\":5197:5234   */\n      mstore\n        /* \"#utility.yul\":5122:5240   */\n      pop\n      pop\n      jump\t// out\n        /* \"#utility.yul\":5246:5364   */\n    tag_63:\n        /* \"#utility.yul\":5333:5357   */\n      tag_120\n        /* \"#utility.yul\":5351:5356   */\n      dup2\n        /* \"#utility.yul\":5333:5357   */\n      tag_51\n      jump\t// in\n    tag_120:\n        /* \"#utility.yul\":5328:5331   */\n      dup3\n        /* \"#utility.yul\":5321:5358   */\n      mstore\n        /* \"#utility.yul\":5246:5364   */\n      pop\n      pop\n      jump\t// out\n        /* \"#utility.yul\":5370:5702   */\n    tag_30:\n        /* \"#utility.yul\":5491:5495   */\n      0x00\n        /* \"#utility.yul\":5529:5531   */\n      0x40\n        /* \"#utility.yul\":5518:5527   */\n      dup3\n        /* \"#utility.yul\":5514:5532   */\n      add\n        /* \"#utility.yul\":5506:5532   */\n      swap1\n      pop\n        /* \"#utility.yul\":5542:5613   */\n      tag_122\n        /* \"#utility.yul\":5610:5611   */\n      0x00\n        /* \"#utility.yul\":5599:5608   */\n      dup4\n        /* \"#utility.yul\":5595:5612   */\n      add\n        /* \"#utility.yul\":5586:5592   */\n      dup6\n        /* \"#utility.yul\":5542:5613   */\n      tag_62\n      jump\t// in\n    tag_122:\n        /* \"#utility.yul\":5623:5695   */\n      tag_123\n        /* \"#utility.yul\":5691:5693   */\n      0x20\n        /* \"#utility.yul\":5680:5689   */\n      dup4\n        /* \"#utility.yul\":5676:5694   */\n      add\n        /* \"#utility.yul\":5667:5673   */\n      dup5\n        /* \"#utility.yul\":5623:5695   */\n      tag_63\n      jump\t// in\n    tag_123:\n        /* \"#utility.yul\":5370:5702   */\n      swap4\n      swap3\n      pop\n      pop\n      pop\n      jump\t// out\n        /* \"#utility.yul\":5708:5824   */\n    tag_64:\n        /* \"#utility.yul\":5778:5799   */\n      tag_125\n        /* \"#utility.yul\":5793:5798   */\n      dup2\n        /* \"#utility.yul\":5778:5799   */\n      tag_54\n      jump\t// in\n    tag_125:\n        /* \"#utility.yul\":5771:5776   */\n      dup2\n        /* \"#utility.yul\":5768:5800   */\n      eq\n        /* \"#utility.yul\":5758:5818   */\n      tag_126\n      jumpi\n        /* \"#utility.yul\":5814:5815   */\n      0x00\n        /* \"#utility.yul\":5811:5812   */\n      dup1\n        /* \"#utility.yul\":5804:5816   */\n      revert\n        /* \"#utility.yul\":5758:5818   */\n    tag_126:\n        /* \"#utility.yul\":5708:5824   */\n      pop\n      jump\t// out\n        /* \"#utility.yul\":5830:5967   */\n    tag_65:\n        /* \"#utility.yul\":5884:5889   */\n      0x00\n        /* \"#utility.yul\":5915:5921   */\n      dup2\n        /* \"#utility.yul\":5909:5922   */\n      mload\n        /* \"#utility.yul\":5900:5922   */\n      swap1\n      pop\n        /* \"#utility.yul\":5931:5961   */\n      tag_128\n        /* \"#utility.yul\":5955:5960   */\n      dup2\n        /* \"#utility.yul\":5931:5961   */\n      tag_64\n      jump\t// in\n    tag_128:\n        /* \"#utility.yul\":5830:5967   */\n      swap3\n      swap2\n      pop\n      pop\n      jump\t// out\n        /* \"#utility.yul\":5973:6318   */\n    tag_34:\n        /* \"#utility.yul\":6040:6046   */\n      0x00\n        /* \"#utility.yul\":6089:6091   */\n      0x20\n        /* \"#utility.yul\":6077:6086   */\n      dup3\n        /* \"#utility.yul\":6068:6075   */\n      dup5\n        /* \"#utility.yul\":6064:6087   */\n      sub\n        /* \"#utility.yul\":6060:6092   */\n      slt\n        /* \"#utility.yul\":6057:6176   */\n      iszero\n      tag_130\n      jumpi\n        /* \"#utility.yul\":6095:6174   */\n      tag_131\n      tag_45\n      jump\t// in\n    tag_131:\n        /* \"#utility.yul\":6057:6176   */\n    tag_130:\n        /* \"#utility.yul\":6215:6216   */\n      0x00\n        /* \"#utility.yul\":6240:6301   */\n      tag_132\n        /* \"#utility.yul\":6293:6300   */\n      dup5\n        /* \"#utility.yul\":6284:6290   */\n      dup3\n        /* \"#utility.yul\":6273:6282   */\n      dup6\n        /* \"#utility.yul\":6269:6291   */\n      add\n        /* \"#utility.yul\":6240:6301   */\n      tag_65\n      jump\t// in\n    tag_132:\n        /* \"#utility.yul\":6230:6301   */\n      swap2\n      pop\n        /* \"#utility.yul\":6186:6311   */\n      pop\n        /* \"#utility.yul\":5973:6318   */\n      swap3\n      swap2\n      pop\n      pop\n      jump\t// out\n        /* \"#utility.yul\":6324:6515   */\n    tag_36:\n        /* \"#utility.yul\":6364:6368   */\n      0x00\n        /* \"#utility.yul\":6384:6404   */\n      tag_134\n        /* \"#utility.yul\":6402:6403   */\n      dup3\n        /* \"#utility.yul\":6384:6404   */\n      tag_51\n      jump\t// in\n    tag_134:\n        /* \"#utility.yul\":6379:6404   */\n      swap2\n      pop\n        /* \"#utility.yul\":6418:6438   */\n      tag_135\n        /* \"#utility.yul\":6436:6437   */\n      dup4\n        /* \"#utility.yul\":6418:6438   */\n      tag_51\n      jump\t// in\n    tag_135:\n        /* \"#utility.yul\":6413:6438   */\n      swap3\n      pop\n        /* \"#utility.yul\":6457:6458   */\n      dup3\n        /* \"#utility.yul\":6454:6455   */\n      dup3\n        /* \"#utility.yul\":6451:6459   */\n      lt\n        /* \"#utility.yul\":6448:6482   */\n      iszero\n      tag_136\n      jumpi\n        /* \"#utility.yul\":6462:6480   */\n      tag_137\n      tag_59\n      jump\t// in\n    tag_137:\n        /* \"#utility.yul\":6448:6482   */\n    tag_136:\n        /* \"#utility.yul\":6507:6508   */\n      dup3\n        /* \"#utility.yul\":6504:6505   */\n      dup3\n        /* \"#utility.yul\":6500:6509   */\n      sub\n        /* \"#utility.yul\":6492:6509   */\n      swap1\n      pop\n        /* \"#utility.yul\":6324:6515   */\n      swap3\n      swap2\n      pop\n      pop\n      jump\t// out\n        /* \"#utility.yul\":6521:6963   */\n    tag_39:\n        /* \"#utility.yul\":6670:6674   */\n      0x00\n        /* \"#utility.yul\":6708:6710   */\n      0x60\n        /* \"#utility.yul\":6697:6706   */\n      dup3\n        /* \"#utility.yul\":6693:6711   */\n      add\n        /* \"#utility.yul\":6685:6711   */\n      swap1\n      pop\n        /* \"#utility.yul\":6721:6792   */\n      tag_139\n        /* \"#utility.yul\":6789:6790   */\n      0x00\n        /* \"#utility.yul\":6778:6787   */\n      dup4\n        /* \"#utility.yul\":6774:6791   */\n      add\n        /* \"#utility.yul\":6765:6771   */\n      dup7\n        /* \"#utility.yul\":6721:6792   */\n      tag_62\n      jump\t// in\n    tag_139:\n        /* \"#utility.yul\":6802:6874   */\n      tag_140\n        /* \"#utility.yul\":6870:6872   */\n      0x20\n        /* \"#utility.yul\":6859:6868   */\n      dup4\n        /* \"#utility.yul\":6855:6873   */\n      add\n        /* \"#utility.yul\":6846:6852   */\n      dup6\n        /* \"#utility.yul\":6802:6874   */\n      tag_62\n      jump\t// in\n    tag_140:\n        /* \"#utility.yul\":6884:6956   */\n      tag_141\n        /* \"#utility.yul\":6952:6954   */\n      0x40\n        /* \"#utility.yul\":6941:6950   */\n      dup4\n        /* \"#utility.yul\":6937:6955   */\n      add\n        /* \"#utility.yul\":6928:6934   */\n      dup5\n        /* \"#utility.yul\":6884:6956   */\n      tag_63\n      jump\t// in\n    tag_141:\n        /* \"#utility.yul\":6521:6963   */\n      swap5\n      swap4\n      pop\n      pop\n      pop\n      pop\n      jump\t// out\n\n    auxdata: 0xa2646970667358221220ec6ce1261d1f91fe95cb3c7014fe8df3ff59dd673b139bbde254f6fc292884a064736f6c634300080d0033\n}\n",
				"bytecode": {
					"linkReferences": {},
					"object": "608060405234801561001057600080fd5b5060405161093d38038061093d833981810160405281019061003291906100dc565b80600160006101000a81548173ffffffffffffffffffffffffffffffffffffffff021916908373ffffffffffffffffffffffffffffffffffffffff16021790555050610109565b600080fd5b600073ffffffffffffffffffffffffffffffffffffffff82169050919050565b60006100a98261007e565b9050919050565b6100b98161009e565b81146100c457600080fd5b50565b6000815190506100d6816100b0565b92915050565b6000602082840312156100f2576100f1610079565b5b6000610100848285016100c7565b91505092915050565b610825806101186000396000f3fe608060405234801561001057600080fd5b50600436106100415760003560e01c806324a756d1146100465780632e1a7d4d14610076578063b6b55f2514610092575b600080fd5b610060600480360381019061005b91906104ad565b6100ae565b60405161006d9190610508565b60405180910390f35b610090600480360381019061008b9190610523565b61019f565b005b6100ac60048036038101906100a79190610523565b610319565b005b6000600160009054906101000a900473ffffffffffffffffffffffffffffffffffffffff1673ffffffffffffffffffffffffffffffffffffffff163373ffffffffffffffffffffffffffffffffffffffff1614610140576040517f08c379a0000000000000000000000000000000000000000000000000000000008152600401610137906105d3565b60405180910390fd5b816000808573ffffffffffffffffffffffffffffffffffffffff1673ffffffffffffffffffffffffffffffffffffffff168152602001908152602001600020600082825461018e9190610622565b925050819055506001905092915050565b806000803373ffffffffffffffffffffffffffffffffffffffff1673ffffffffffffffffffffffffffffffffffffffff168152602001908152602001600020541015610220576040517f08c379a0000000000000000000000000000000000000000000000000000000008152600401610217906106c4565b60405180910390fd5b600160009054906101000a900473ffffffffffffffffffffffffffffffffffffffff1673ffffffffffffffffffffffffffffffffffffffff1663a9059cbb33836040518363ffffffff1660e01b815260040161027d929190610702565b6020604051808303816000875af115801561029c573d6000803e3d6000fd5b505050506040513d601f19601f820116820180604052508101906102c09190610757565b50806000803373ffffffffffffffffffffffffffffffffffffffff1673ffffffffffffffffffffffffffffffffffffffff168152602001908152602001600020600082825461030f9190610784565b9250508190555050565b600160009054906101000a900473ffffffffffffffffffffffffffffffffffffffff1673ffffffffffffffffffffffffffffffffffffffff166323b872dd3330846040518463ffffffff1660e01b8152600401610378939291906107b8565b6020604051808303816000875af1158015610397573d6000803e3d6000fd5b505050506040513d601f19601f820116820180604052508101906103bb9190610757565b50806000803373ffffffffffffffffffffffffffffffffffffffff1673ffffffffffffffffffffffffffffffffffffffff168152602001908152602001600020600082825461040a9190610622565b9250508190555050565b600080fd5b600073ffffffffffffffffffffffffffffffffffffffff82169050919050565b600061044482610419565b9050919050565b61045481610439565b811461045f57600080fd5b50565b6000813590506104718161044b565b92915050565b6000819050919050565b61048a81610477565b811461049557600080fd5b50565b6000813590506104a781610481565b92915050565b600080604083850312156104c4576104c3610414565b5b60006104d285828601610462565b92505060206104e385828601610498565b9150509250929050565b60008115159050919050565b610502816104ed565b82525050565b600060208201905061051d60008301846104f9565b92915050565b60006020828403121561053957610538610414565b5b600061054784828501610498565b91505092915050565b600082825260208201905092915050565b7f4f6e6c792042617365455243323020636f6e747261637420636f756c6420657860008201527f6563757465210000000000000000000000000000000000000000000000000000602082015250565b60006105bd602683610550565b91506105c882610561565b604082019050919050565b600060208201905081810360008301526105ec816105b0565b9050919050565b7f4e487b7100000000000000000000000000000000000000000000000000000000600052601160045260246000fd5b600061062d82610477565b915061063883610477565b9250827fffffffffffffffffffffffffffffffffffffffffffffffffffffffffffffffff0382111561066d5761066c6105f3565b5b828201905092915050565b7f546f6b656e42616e6b3a204e6f20737566666369656e7420746f6b656e730000600082015250565b60006106ae601e83610550565b91506106b982610678565b602082019050919050565b600060208201905081810360008301526106dd816106a1565b9050919050565b6106ed81610439565b82525050565b6106fc81610477565b82525050565b600060408201905061071760008301856106e4565b61072460208301846106f3565b9392505050565b610734816104ed565b811461073f57600080fd5b50565b6000815190506107518161072b565b92915050565b60006020828403121561076d5761076c610414565b5b600061077b84828501610742565b91505092915050565b600061078f82610477565b915061079a83610477565b9250828210156107ad576107ac6105f3565b5b828203905092915050565b60006060820190506107cd60008301866106e4565b6107da60208301856106e4565b6107e760408301846106f3565b94935050505056fea2646970667358221220ec6ce1261d1f91fe95cb3c7014fe8df3ff59dd673b139bbde254f6fc292884a064736f6c634300080d0033",
					"opcodes": "PUSH1 0x80 PUSH1 0x40 MSTORE CALLVALUE DUP1 ISZERO PUSH2 0x10 JUMPI PUSH1 0x0 DUP1 REVERT JUMPDEST POP PUSH1 0x40 MLOAD PUSH2 0x93D CODESIZE SUB DUP1 PUSH2 0x93D DUP4 CODECOPY DUP2 DUP2 ADD PUSH1 0x40 MSTORE DUP2 ADD SWAP1 PUSH2 0x32 SWAP2 SWAP1 PUSH2 0xDC JUMP JUMPDEST DUP1 PUSH1 0x1 PUSH1 0x0 PUSH2 0x100 EXP DUP2 SLOAD DUP2 PUSH20 0xFFFFFFFFFFFFFFFFFFFFFFFFFFFFFFFFFFFFFFFF MUL NOT AND SWAP1 DUP4 PUSH20 0xFFFFFFFFFFFFFFFFFFFFFFFFFFFFFFFFFFFFFFFF AND MUL OR SWAP1 SSTORE POP POP PUSH2 0x109 JUMP JUMPDEST PUSH1 0x0 DUP1 REVERT JUMPDEST PUSH1 0x0 PUSH20 0xFFFFFFFFFFFFFFFFFFFFFFFFFFFFFFFFFFFFFFFF DUP3 AND SWAP1 POP SWAP2 SWAP1 POP JUMP JUMPDEST PUSH1 0x0 PUSH2 0xA9 DUP3 PUSH2 0x7E JUMP JUMPDEST SWAP1 POP SWAP2 SWAP1 POP JUMP JUMPDEST PUSH2 0xB9 DUP2 PUSH2 0x9E JUMP JUMPDEST DUP2 EQ PUSH2 0xC4 JUMPI PUSH1 0x0 DUP1 REVERT JUMPDEST POP JUMP JUMPDEST PUSH1 0x0 DUP2 MLOAD SWAP1 POP PUSH2 0xD6 DUP2 PUSH2 0xB0 JUMP JUMPDEST SWAP3 SWAP2 POP POP JUMP JUMPDEST PUSH1 0x0 PUSH1 0x20 DUP3 DUP5 SUB SLT ISZERO PUSH2 0xF2 JUMPI PUSH2 0xF1 PUSH2 0x79 JUMP JUMPDEST JUMPDEST PUSH1 0x0 PUSH2 0x100 DUP5 DUP3 DUP6 ADD PUSH2 0xC7 JUMP JUMPDEST SWAP2 POP POP SWAP3 SWAP2 POP POP JUMP JUMPDEST PUSH2 0x825 DUP1 PUSH2 0x118 PUSH1 0x0 CODECOPY PUSH1 0x0 RETURN INVALID PUSH1 0x80 PUSH1 0x40 MSTORE CALLVALUE DUP1 ISZERO PUSH2 0x10 JUMPI PUSH1 0x0 DUP1 REVERT JUMPDEST POP PUSH1 0x4 CALLDATASIZE LT PUSH2 0x41 JUMPI PUSH1 0x0 CALLDATALOAD PUSH1 0xE0 SHR DUP1 PUSH4 0x24A756D1 EQ PUSH2 0x46 JUMPI DUP1 PUSH4 0x2E1A7D4D EQ PUSH2 0x76 JUMPI DUP1 PUSH4 0xB6B55F25 EQ PUSH2 0x92 JUMPI JUMPDEST PUSH1 0x0 DUP1 REVERT JUMPDEST PUSH2 0x60 PUSH1 0x4 DUP1 CALLDATASIZE SUB DUP2 ADD SWAP1 PUSH2 0x5B SWAP2 SWAP1 PUSH2 0x4AD JUMP JUMPDEST PUSH2 0xAE JUMP JUMPDEST PUSH1 0x40 MLOAD PUSH2 0x6D SWAP2 SWAP1 PUSH2 0x508 JUMP JUMPDEST PUSH1 0x40 MLOAD DUP1 SWAP2 SUB SWAP1 RETURN JUMPDEST PUSH2 0x90 PUSH1 0x4 DUP1 CALLDATASIZE SUB DUP2 ADD SWAP1 PUSH2 0x8B SWAP2 SWAP1 PUSH2 0x523 JUMP JUMPDEST PUSH2 0x19F JUMP JUMPDEST STOP JUMPDEST PUSH2 0xAC PUSH1 0x4 DUP1 CALLDATASIZE SUB DUP2 ADD SWAP1 PUSH2 0xA7 SWAP2 SWAP1 PUSH2 0x523 JUMP JUMPDEST PUSH2 0x319 JUMP JUMPDEST STOP JUMPDEST PUSH1 0x0 PUSH1 0x1 PUSH1 0x0 SWAP1 SLOAD SWAP1 PUSH2 0x100 EXP SWAP1 DIV PUSH20 0xFFFFFFFFFFFFFFFFFFFFFFFFFFFFFFFFFFFFFFFF AND PUSH20 0xFFFFFFFFFFFFFFFFFFFFFFFFFFFFFFFFFFFFFFFF AND CALLER PUSH20 0xFFFFFFFFFFFFFFFFFFFFFFFFFFFFFFFFFFFFFFFF AND EQ PUSH2 0x140 JUMPI PUSH1 0x40 MLOAD PUSH32 0x8C379A000000000000000000000000000000000000000000000000000000000 DUP2 MSTORE PUSH1 0x4 ADD PUSH2 0x137 SWAP1 PUSH2 0x5D3 JUMP JUMPDEST PUSH1 0x40 MLOAD DUP1 SWAP2 SUB SWAP1 REVERT JUMPDEST DUP2 PUSH1 0x0 DUP1 DUP6 PUSH20 0xFFFFFFFFFFFFFFFFFFFFFFFFFFFFFFFFFFFFFFFF AND PUSH20 0xFFFFFFFFFFFFFFFFFFFFFFFFFFFFFFFFFFFFFFFF AND DUP2 MSTORE PUSH1 0x20 ADD SWAP1 DUP2 MSTORE PUSH1 0x20 ADD PUSH1 0x0 KECCAK256 PUSH1 0x0 DUP3 DUP3 SLOAD PUSH2 0x18E SWAP2 SWAP1 PUSH2 0x622 JUMP JUMPDEST SWAP3 POP POP DUP2 SWAP1 SSTORE POP PUSH1 0x1 SWAP1 POP SWAP3 SWAP2 POP POP JUMP JUMPDEST DUP1 PUSH1 0x0 DUP1 CALLER PUSH20 0xFFFFFFFFFFFFFFFFFFFFFFFFFFFFFFFFFFFFFFFF AND PUSH20 0xFFFFFFFFFFFFFFFFFFFFFFFFFFFFFFFFFFFFFFFF AND DUP2 MSTORE PUSH1 0x20 ADD SWAP1 DUP2 MSTORE PUSH1 0x20 ADD PUSH1 0x0 KECCAK256 SLOAD LT ISZERO PUSH2 0x220 JUMPI PUSH1 0x40 MLOAD PUSH32 0x8C379A000000000000000000000000000000000000000000000000000000000 DUP2 MSTORE PUSH1 0x4 ADD PUSH2 0x217 SWAP1 PUSH2 0x6C4 JUMP JUMPDEST PUSH1 0x40 MLOAD DUP1 SWAP2 SUB SWAP1 REVERT JUMPDEST PUSH1 0x1 PUSH1 0x0 SWAP1 SLOAD SWAP1 PUSH2 0x100 EXP SWAP1 DIV PUSH20 0xFFFFFFFFFFFFFFFFFFFFFFFFFFFFFFFFFFFFFFFF AND PUSH20 0xFFFFFFFFFFFFFFFFFFFFFFFFFFFFFFFFFFFFFFFF AND PUSH4 0xA9059CBB CALLER DUP4 PUSH1 0x40 MLOAD DUP4 PUSH4 0xFFFFFFFF AND PUSH1 0xE0 SHL DUP2 MSTORE PUSH1 0x4 ADD PUSH2 0x27D SWAP3 SWAP2 SWAP1 PUSH2 0x702 JUMP JUMPDEST PUSH1 0x20 PUSH1 0x40 MLOAD DUP1 DUP4 SUB DUP2 PUSH1 0x0 DUP8 GAS CALL ISZERO DUP1 ISZERO PUSH2 0x29C JUMPI RETURNDATASIZE PUSH1 0x0 DUP1 RETURNDATACOPY RETURNDATASIZE PUSH1 0x0 REVERT JUMPDEST POP POP POP POP PUSH1 0x40 MLOAD RETURNDATASIZE PUSH1 0x1F NOT PUSH1 0x1F DUP3 ADD AND DUP3 ADD DUP1 PUSH1 0x40 MSTORE POP DUP2 ADD SWAP1 PUSH2 0x2C0 SWAP2 SWAP1 PUSH2 0x757 JUMP JUMPDEST POP DUP1 PUSH1 0x0 DUP1 CALLER PUSH20 0xFFFFFFFFFFFFFFFFFFFFFFFFFFFFFFFFFFFFFFFF AND PUSH20 0xFFFFFFFFFFFFFFFFFFFFFFFFFFFFFFFFFFFFFFFF AND DUP2 MSTORE PUSH1 0x20 ADD SWAP1 DUP2 MSTORE PUSH1 0x20 ADD PUSH1 0x0 KECCAK256 PUSH1 0x0 DUP3 DUP3 SLOAD PUSH2 0x30F SWAP2 SWAP1 PUSH2 0x784 JUMP JUMPDEST SWAP3 POP POP DUP2 SWAP1 SSTORE POP POP JUMP JUMPDEST PUSH1 0x1 PUSH1 0x0 SWAP1 SLOAD SWAP1 PUSH2 0x100 EXP SWAP1 DIV PUSH20 0xFFFFFFFFFFFFFFFFFFFFFFFFFFFFFFFFFFFFFFFF AND PUSH20 0xFFFFFFFFFFFFFFFFFFFFFFFFFFFFFFFFFFFFFFFF AND PUSH4 0x23B872DD CALLER ADDRESS DUP5 PUSH1 0x40 MLOAD DUP5 PUSH4 0xFFFFFFFF AND PUSH1 0xE0 SHL DUP2 MSTORE PUSH1 0x4 ADD PUSH2 0x378 SWAP4 SWAP3 SWAP2 SWAP1 PUSH2 0x7B8 JUMP JUMPDEST PUSH1 0x20 PUSH1 0x40 MLOAD DUP1 DUP4 SUB DUP2 PUSH1 0x0 DUP8 GAS CALL ISZERO DUP1 ISZERO PUSH2 0x397 JUMPI RETURNDATASIZE PUSH1 0x0 DUP1 RETURNDATACOPY RETURNDATASIZE PUSH1 0x0 REVERT JUMPDEST POP POP POP POP PUSH1 0x40 MLOAD RETURNDATASIZE PUSH1 0x1F NOT PUSH1 0x1F DUP3 ADD AND DUP3 ADD DUP1 PUSH1 0x40 MSTORE POP DUP2 ADD SWAP1 PUSH2 0x3BB SWAP2 SWAP1 PUSH2 0x757 JUMP JUMPDEST POP DUP1 PUSH1 0x0 DUP1 CALLER PUSH20 0xFFFFFFFFFFFFFFFFFFFFFFFFFFFFFFFFFFFFFFFF AND PUSH20 0xFFFFFFFFFFFFFFFFFFFFFFFFFFFFFFFFFFFFFFFF AND DUP2 MSTORE PUSH1 0x20 ADD SWAP1 DUP2 MSTORE PUSH1 0x20 ADD PUSH1 0x0 KECCAK256 PUSH1 0x0 DUP3 DUP3 SLOAD PUSH2 0x40A SWAP2 SWAP1 PUSH2 0x622 JUMP JUMPDEST SWAP3 POP POP DUP2 SWAP1 SSTORE POP POP JUMP JUMPDEST PUSH1 0x0 DUP1 REVERT JUMPDEST PUSH1 0x0 PUSH20 0xFFFFFFFFFFFFFFFFFFFFFFFFFFFFFFFFFFFFFFFF DUP3 AND SWAP1 POP SWAP2 SWAP1 POP JUMP JUMPDEST PUSH1 0x0 PUSH2 0x444 DUP3 PUSH2 0x419 JUMP JUMPDEST SWAP1 POP SWAP2 SWAP1 POP JUMP JUMPDEST PUSH2 0x454 DUP2 PUSH2 0x439 JUMP JUMPDEST DUP2 EQ PUSH2 0x45F JUMPI PUSH1 0x0 DUP1 REVERT JUMPDEST POP JUMP JUMPDEST PUSH1 0x0 DUP2 CALLDATALOAD SWAP1 POP PUSH2 0x471 DUP2 PUSH2 0x44B JUMP JUMPDEST SWAP3 SWAP2 POP POP JUMP JUMPDEST PUSH1 0x0 DUP2 SWAP1 POP SWAP2 SWAP1 POP JUMP JUMPDEST PUSH2 0x48A DUP2 PUSH2 0x477 JUMP JUMPDEST DUP2 EQ PUSH2 0x495 JUMPI PUSH1 0x0 DUP1 REVERT JUMPDEST POP JUMP JUMPDEST PUSH1 0x0 DUP2 CALLDATALOAD SWAP1 POP PUSH2 0x4A7 DUP2 PUSH2 0x481 JUMP JUMPDEST SWAP3 SWAP2 POP POP JUMP JUMPDEST PUSH1 0x0 DUP1 PUSH1 0x40 DUP4 DUP6 SUB SLT ISZERO PUSH2 0x4C4 JUMPI PUSH2 0x4C3 PUSH2 0x414 JUMP JUMPDEST JUMPDEST PUSH1 0x0 PUSH2 0x4D2 DUP6 DUP3 DUP7 ADD PUSH2 0x462 JUMP JUMPDEST SWAP3 POP POP PUSH1 0x20 PUSH2 0x4E3 DUP6 DUP3 DUP7 ADD PUSH2 0x498 JUMP JUMPDEST SWAP2 POP POP SWAP3 POP SWAP3 SWAP1 POP JUMP JUMPDEST PUSH1 0x0 DUP2 ISZERO ISZERO SWAP1 POP SWAP2 SWAP1 POP JUMP JUMPDEST PUSH2 0x502 DUP2 PUSH2 0x4ED JUMP JUMPDEST DUP3 MSTORE POP POP JUMP JUMPDEST PUSH1 0x0 PUSH1 0x20 DUP3 ADD SWAP1 POP PUSH2 0x51D PUSH1 0x0 DUP4 ADD DUP5 PUSH2 0x4F9 JUMP JUMPDEST SWAP3 SWAP2 POP POP JUMP JUMPDEST PUSH1 0x0 PUSH1 0x20 DUP3 DUP5 SUB SLT ISZERO PUSH2 0x539 JUMPI PUSH2 0x538 PUSH2 0x414 JUMP JUMPDEST JUMPDEST PUSH1 0x0 PUSH2 0x547 DUP5 DUP3 DUP6 ADD PUSH2 0x498 JUMP JUMPDEST SWAP2 POP POP SWAP3 SWAP2 POP POP JUMP JUMPDEST PUSH1 0x0 DUP3 DUP3 MSTORE PUSH1 0x20 DUP3 ADD SWAP1 POP SWAP3 SWAP2 POP POP JUMP JUMPDEST PUSH32 0x4F6E6C792042617365455243323020636F6E747261637420636F756C64206578 PUSH1 0x0 DUP3 ADD MSTORE PUSH32 0x6563757465210000000000000000000000000000000000000000000000000000 PUSH1 0x20 DUP3 ADD MSTORE POP JUMP JUMPDEST PUSH1 0x0 PUSH2 0x5BD PUSH1 0x26 DUP4 PUSH2 0x550 JUMP JUMPDEST SWAP2 POP PUSH2 0x5C8 DUP3 PUSH2 0x561 JUMP JUMPDEST PUSH1 0x40 DUP3 ADD SWAP1 POP SWAP2 SWAP1 POP JUMP JUMPDEST PUSH1 0x0 PUSH1 0x20 DUP3 ADD SWAP1 POP DUP2 DUP2 SUB PUSH1 0x0 DUP4 ADD MSTORE PUSH2 0x5EC DUP2 PUSH2 0x5B0 JUMP JUMPDEST SWAP1 POP SWAP2 SWAP1 POP JUMP JUMPDEST PUSH32 0x4E487B7100000000000000000000000000000000000000000000000000000000 PUSH1 0x0 MSTORE PUSH1 0x11 PUSH1 0x4 MSTORE PUSH1 0x24 PUSH1 0x0 REVERT JUMPDEST PUSH1 0x0 PUSH2 0x62D DUP3 PUSH2 0x477 JUMP JUMPDEST SWAP2 POP PUSH2 0x638 DUP4 PUSH2 0x477 JUMP JUMPDEST SWAP3 POP DUP3 PUSH32 0xFFFFFFFFFFFFFFFFFFFFFFFFFFFFFFFFFFFFFFFFFFFFFFFFFFFFFFFFFFFFFFFF SUB DUP3 GT ISZERO PUSH2 0x66D JUMPI PUSH2 0x66C PUSH2 0x5F3 JUMP JUMPDEST JUMPDEST DUP3 DUP3 ADD SWAP1 POP SWAP3 SWAP2 POP POP JUMP JUMPDEST PUSH32 0x546F6B656E42616E6B3A204E6F20737566666369656E7420746F6B656E730000 PUSH1 0x0 DUP3 ADD MSTORE POP JUMP JUMPDEST PUSH1 0x0 PUSH2 0x6AE PUSH1 0x1E DUP4 PUSH2 0x550 JUMP JUMPDEST SWAP2 POP PUSH2 0x6B9 DUP3 PUSH2 0x678 JUMP JUMPDEST PUSH1 0x20 DUP3 ADD SWAP1 POP SWAP2 SWAP1 POP JUMP JUMPDEST PUSH1 0x0 PUSH1 0x20 DUP3 ADD SWAP1 POP DUP2 DUP2 SUB PUSH1 0x0 DUP4 ADD MSTORE PUSH2 0x6DD DUP2 PUSH2 0x6A1 JUMP JUMPDEST SWAP1 POP SWAP2 SWAP1 POP JUMP JUMPDEST PUSH2 0x6ED DUP2 PUSH2 0x439 JUMP JUMPDEST DUP3 MSTORE POP POP JUMP JUMPDEST PUSH2 0x6FC DUP2 PUSH2 0x477 JUMP JUMPDEST DUP3 MSTORE POP POP JUMP JUMPDEST PUSH1 0x0 PUSH1 0x40 DUP3 ADD SWAP1 POP PUSH2 0x717 PUSH1 0x0 DUP4 ADD DUP6 PUSH2 0x6E4 JUMP JUMPDEST PUSH2 0x724 PUSH1 0x20 DUP4 ADD DUP5 PUSH2 0x6F3 JUMP JUMPDEST SWAP4 SWAP3 POP POP POP JUMP JUMPDEST PUSH2 0x734 DUP2 PUSH2 0x4ED JUMP JUMPDEST DUP2 EQ PUSH2 0x73F JUMPI PUSH1 0x0 DUP1 REVERT JUMPDEST POP JUMP JUMPDEST PUSH1 0x0 DUP2 MLOAD SWAP1 POP PUSH2 0x751 DUP2 PUSH2 0x72B JUMP JUMPDEST SWAP3 SWAP2 POP POP JUMP JUMPDEST PUSH1 0x0 PUSH1 0x20 DUP3 DUP5 SUB SLT ISZERO PUSH2 0x76D JUMPI PUSH2 0x76C PUSH2 0x414 JUMP JUMPDEST JUMPDEST PUSH1 0x0 PUSH2 0x77B DUP5 DUP3 DUP6 ADD PUSH2 0x742 JUMP JUMPDEST SWAP2 POP POP SWAP3 SWAP2 POP POP JUMP JUMPDEST PUSH1 0x0 PUSH2 0x78F DUP3 PUSH2 0x477 JUMP JUMPDEST SWAP2 POP PUSH2 0x79A DUP4 PUSH2 0x477 JUMP JUMPDEST SWAP3 POP DUP3 DUP3 LT ISZERO PUSH2 0x7AD JUMPI PUSH2 0x7AC PUSH2 0x5F3 JUMP JUMPDEST JUMPDEST DUP3 DUP3 SUB SWAP1 POP SWAP3 SWAP2 POP POP JUMP JUMPDEST PUSH1 0x0 PUSH1 0x60 DUP3 ADD SWAP1 POP PUSH2 0x7CD PUSH1 0x0 DUP4 ADD DUP7 PUSH2 0x6E4 JUMP JUMPDEST PUSH2 0x7DA PUSH1 0x20 DUP4 ADD DUP6 PUSH2 0x6E4 JUMP JUMPDEST PUSH2 0x7E7 PUSH1 0x40 DUP4 ADD DUP5 PUSH2 0x6F3 JUMP JUMPDEST SWAP5 SWAP4 POP POP POP POP JUMP INVALID LOG2 PUSH5 0x6970667358 0x22 SLT KECCAK256 0xEC PUSH13 0xE1261D1F91FE95CB3C7014FE8D RETURN SELFDESTRUCT MSIZE 0xDD PUSH8 0x3B139BBDE254F6FC 0x29 0x28 DUP5 LOG0 PUSH5 0x736F6C6343 STOP ADDMOD 0xD STOP CALLER "
				},
				"gasEstimates": {
					"creation": {
						"codeDepositCost": "417000",
						"executionCost": "infinite",
						"totalCost": "infinite"
					},
					"external": {
						"deposit(uint256)": "infinite",
						"tokensReceived(address,uint256)": "infinite",
						"withdraw(uint256)": "infinite"
					}
				},
				"methodIdentifiers": {
					"deposit(uint256)": "b6b55f25",
					"tokensReceived(address,uint256)": "24a756d1",
					"withdraw(uint256)": "2e1a7d4d"
				}
			},
			"storageLayout": {
				"storage": [
					{
						"astId": 338,
						"contract": "TokenBank.sol:TokenBank",
						"label": "deposits",
						"offset": 0,
						"slot": "0",
						"type": "t_mapping(t_address,t_uint256)"
					},
					{
						"astId": 341,
						"contract": "TokenBank.sol:TokenBank",
						"label": "baseERC20",
						"offset": 0,
						"slot": "1",
						"type": "t_contract(BaseERC20)319"
					}
				],
				"types": {
					"t_address": {
						"encoding": "inplace",
						"label": "address",
						"numberOfBytes": "20"
					},
					"t_contract(BaseERC20)319": {
						"encoding": "inplace",
						"label": "contract BaseERC20",
						"numberOfBytes": "20"
					},
					"t_mapping(t_address,t_uint256)": {
						"encoding": "mapping",
						"key": "t_address",
						"label": "mapping(address => uint256)",
						"numberOfBytes": "32",
						"value": "t_uint256"
					},
					"t_uint256": {
						"encoding": "inplace",
						"label": "uint256",
						"numberOfBytes": "32"
					}
				}
			},
			"userdoc": {
				"kind": "user",
				"methods": {},
				"version": 1
			}
		}
	}
}